{
  "contractName": "Escrow",
  "abi": [
    {
      "constant": true,
      "inputs": [],
      "name": "productName",
      "outputs": [
        {
          "name": "",
          "type": "string"
        }
      ],
      "payable": false,
      "stateMutability": "view",
      "type": "function"
    },
    {
      "constant": true,
      "inputs": [],
      "name": "sellerOK",
      "outputs": [
        {
          "name": "",
          "type": "bool"
        }
      ],
      "payable": false,
      "stateMutability": "view",
      "type": "function"
    },
    {
      "constant": true,
      "inputs": [],
      "name": "buyerOK",
      "outputs": [
        {
          "name": "",
          "type": "bool"
        }
      ],
      "payable": false,
      "stateMutability": "view",
      "type": "function"
    },
    {
      "inputs": [
        {
          "name": "_seller",
          "type": "address"
        },
        {
          "name": "_buyer",
          "type": "address"
        },
        {
          "name": "_productName",
          "type": "string"
        }
      ],
      "payable": true,
      "stateMutability": "payable",
      "type": "constructor"
    },
    {
      "anonymous": false,
      "inputs": [],
      "name": "refund",
      "type": "event"
    },
    {
      "anonymous": false,
      "inputs": [],
      "name": "completed",
      "type": "event"
    },
    {
      "constant": true,
      "inputs": [],
      "name": "getEscrowInfo",
      "outputs": [
        {
          "name": "",
          "type": "string"
        },
        {
          "name": "",
          "type": "uint256"
        },
        {
          "name": "",
          "type": "bool"
        },
        {
          "name": "",
          "type": "bool"
        }
      ],
      "payable": false,
      "stateMutability": "view",
      "type": "function"
    },
    {
      "constant": true,
      "inputs": [],
      "name": "contractValue",
      "outputs": [
        {
          "name": "",
          "type": "uint256"
        }
      ],
      "payable": false,
      "stateMutability": "view",
      "type": "function"
    },
    {
      "constant": false,
      "inputs": [],
      "name": "accept",
      "outputs": [],
      "payable": false,
      "stateMutability": "nonpayable",
      "type": "function"
    },
    {
      "constant": false,
      "inputs": [],
      "name": "reject",
      "outputs": [],
      "payable": false,
      "stateMutability": "nonpayable",
      "type": "function"
    }
  ],
  "bytecode": "0x60606040526000600460006101000a81548160ff0219169083151502179055506000600460016101000a81548160ff021916908315150217905550604051610a92380380610a9283398101604052808051906020019091908051906020019091908051820191905050816000806101000a81548173ffffffffffffffffffffffffffffffffffffffff021916908373ffffffffffffffffffffffffffffffffffffffff16021790555082600160006101000a81548173ffffffffffffffffffffffffffffffffffffffff021916908373ffffffffffffffffffffffffffffffffffffffff16021790555080600290805190602001906100ff92919061010f565b50426003819055505050506101b4565b828054600181600116156101000203166002900490600052602060002090601f016020900481019282601f1061015057805160ff191683800117855561017e565b8280016001018555821561017e579182015b8281111561017d578251825591602001919060010190610162565b5b50905061018b919061018f565b5090565b6101b191905b808211156101ad576000816000905550600101610195565b5090565b90565b6108cf806101c36000396000f300606060405260043610610083576000357c0100000000000000000000000000000000000000000000000000000000900463ffffffff16806309145d7d146100885780632852b71c146101335780634dc415de146101485780637f7650eb1461015d57806383c8c833146101eb578063e0dec0c014610218578063f57b4e8414610241575b600080fd5b341561009357600080fd5b61009b61026e565b60405180806020018581526020018415151515815260200183151515158152602001828103825286818151815260200191508051906020019080838360005b838110156100f55780820151818401526020810190506100da565b50505050905090810190601f1680156101225780820380516001836020036101000a031916815260200191505b509550505050505060405180910390f35b341561013e57600080fd5b61014661035f565b005b341561015357600080fd5b61015b610586565b005b341561016857600080fd5b6101706107ac565b6040518080602001828103825283818151815260200191508051906020019080838360005b838110156101b0578082015181840152602081019050610195565b50505050905090810190601f1680156101dd5780820380516001836020036101000a031916815260200191505b509250505060405180910390f35b34156101f657600080fd5b6101fe61084a565b604051808215151515815260200191505060405180910390f35b341561022357600080fd5b61022b61085d565b6040518082815260200191505060405180910390f35b341561024c57600080fd5b61025461087c565b604051808215151515815260200191505060405180910390f35b61027661088f565b600080600060023073ffffffffffffffffffffffffffffffffffffffff1631600460009054906101000a900460ff16600460019054906101000a900460ff16838054600181600116156101000203166002900480601f01602080910402602001604051908101604052809291908181526020018280546001816001161561010002031660029004801561034a5780601f1061031f5761010080835404028352916020019161034a565b820191906000526020600020905b81548152906001019060200180831161032d57829003601f168201915b50505050509350935093509350935090919293565b6000809054906101000a900473ffffffffffffffffffffffffffffffffffffffff1673ffffffffffffffffffffffffffffffffffffffff163373ffffffffffffffffffffffffffffffffffffffff1614806104075750600160009054906101000a900473ffffffffffffffffffffffffffffffffffffffff1673ffffffffffffffffffffffffffffffffffffffff163373ffffffffffffffffffffffffffffffffffffffff16145b151561041257600080fd5b6000809054906101000a900473ffffffffffffffffffffffffffffffffffffffff1673ffffffffffffffffffffffffffffffffffffffff163373ffffffffffffffffffffffffffffffffffffffff161415610487576001600460006101000a81548160ff0219169083151502179055506104a3565b6001600460016101000a81548160ff0219169083151502179055505b60011515600460009054906101000a900460ff1615151480156104d9575060011515600460019054906101000a900460ff161515145b1561058457600160009054906101000a900473ffffffffffffffffffffffffffffffffffffffff1673ffffffffffffffffffffffffffffffffffffffff166108fc3073ffffffffffffffffffffffffffffffffffffffff16319081150290604051600060405180830381858888f19350505050151561055757600080fd5b7f9d9a7fe9ab46200c307f4b714f7e15075a844d7621a95ef4165ba8857a09e16c60405160405180910390a15b565b6000809054906101000a900473ffffffffffffffffffffffffffffffffffffffff1673ffffffffffffffffffffffffffffffffffffffff163373ffffffffffffffffffffffffffffffffffffffff16148061062e5750600160009054906101000a900473ffffffffffffffffffffffffffffffffffffffff1673ffffffffffffffffffffffffffffffffffffffff163373ffffffffffffffffffffffffffffffffffffffff16145b151561063957600080fd5b6000809054906101000a900473ffffffffffffffffffffffffffffffffffffffff1673ffffffffffffffffffffffffffffffffffffffff163373ffffffffffffffffffffffffffffffffffffffff1614156106ae576000600460006101000a81548160ff0219169083151502179055506106ca565b6000600460016101000a81548160ff0219169083151502179055505b60001515600460009054906101000a900460ff161515148015610700575060001515600460019054906101000a900460ff161515145b156107aa576000809054906101000a900473ffffffffffffffffffffffffffffffffffffffff1673ffffffffffffffffffffffffffffffffffffffff166108fc3073ffffffffffffffffffffffffffffffffffffffff16319081150290604051600060405180830381858888f19350505050151561077d57600080fd5b7f590e1ae31a3c4dd84a5879e045f30debf7fe91e438578a7d365ef22247ef891f60405160405180910390a15b565b60028054600181600116156101000203166002900480601f0160208091040260200160405190810160405280929190818152602001828054600181600116156101000203166002900480156108425780601f1061081757610100808354040283529160200191610842565b820191906000526020600020905b81548152906001019060200180831161082557829003601f168201915b505050505081565b600460019054906101000a900460ff1681565b60003073ffffffffffffffffffffffffffffffffffffffff1631905090565b600460009054906101000a900460ff1681565b6020604051908101604052806000815250905600a165627a7a7230582005042f016494bd88a0af4cbb315e3e76e56e91a10bc45052c53117a97d10805f0029",
  "source": "pragma solidity ^0.4.19;\n\ncontract Escrow {\n    address buyer;\n    address seller;\n    string public productName;\n    uint timestamp;\n    bool public buyerOK = false;\n    bool public sellerOK = false;\n\n    event refund();\n    event completed();\n\n    \n    function Escrow(address _seller, address _buyer, string _productName) public payable {\n        buyer = _buyer;\n        seller = _seller;\n        productName = _productName;\n        timestamp = now;\n    }\n\n    function getEscrowInfo() view public returns(string,uint,bool,bool) {\n        return (productName,this.balance,buyerOK,sellerOK);\n    }\n\n    function contractValue() view public returns (uint) {\n        return this.balance;\n    }\n    \n    function accept() public {\n        require(msg.sender == buyer || msg.sender == seller);\n        if (msg.sender == buyer) {\n            buyerOK = true;\n        } else {\n            sellerOK = true;\n        }\n        \n        if (buyerOK == true && sellerOK == true) {\n            seller.transfer(this.balance);\n            completed();\n        }\n    }\n\n\n    function reject() public {\n        require(msg.sender == buyer || msg.sender == seller);\n        if (msg.sender == buyer) {\n            buyerOK = false;\n\n        } else {\n            sellerOK = false;\n        }\n        if (buyerOK == false && sellerOK == false) {\n            buyer.transfer(this.balance);\n            refund();\n        }\n    }\n}\n\n\ncontract Store {\n    enum ProductStatus { Available, Sold, OutOfStock }\n    struct Product {\n        uint id;\n        string name;\n        string category;\n        string imageLink;\n        string desc;\n        uint price;\n        ProductStatus status;\n    }\n\n    event escrowIsCreated(address escrowAddress);\n\n\n    address owner;\n    Product[] public productList;\n    Product public currentProduct;\n    string[] productCategory;\n    mapping(string => uint) productQuantity;\n    mapping(address => mapping(uint => Product)) stores;\n    mapping(uint => address) productIDInStore;\n    uint public productIndex;\n\n    function Store() public {\n        productIndex = 0;\n    }\n\n    function addProduct(string _name, string _category, string _imageURL, string _desc, uint _price) public {\n        productIndex += 1;\n        Product memory product = Product(productIndex, _name, _category, _imageURL, _desc, _price, ProductStatus.Available);\n        stores[msg.sender][productIndex] = product;\n        productList.push(product);\n        productCategory.push(_category);\n        // addCategory(_category);\n        productIDInStore[productIndex] = msg.sender;\n    }\n\n    \n    function addCategory(string category) public {\n        uint categoryLength = 0;\n        for (uint i = 0; i < productCategory.length; i++) {\n            if (compareStrings(category,productCategory[i])) {\n                categoryLength++;\n            }\n        }\n        if (categoryLength == 0 ) {\n            productCategory.push(category);\n        }\n    }\n\n    function getCategory(uint index) view public returns (string) {\n        return productCategory[index];\n    }\n\n    function getCategoryLength() view public returns (uint) {\n        return productCategory.length;\n    }\n\n    function buyProduct(string productName, address buyer) public payable{\n        getProductBy(productName);\n        address seller = productIDInStore[currentProduct.id];\n        address escrowAddress = address((new Escrow).value(msg.value)(seller, buyer, productName));\n        \n        escrowIsCreated(escrowAddress);\n    }\n\n    function getProductBy(string name) public {\n        for(uint i = 0; i < productList.length; i++) {\n            if (compareStrings(productList[i].name,name)) {\n                currentProduct = productList[i];\n            }\n        }\n    }\n\n    function getProduct(uint id) view public returns (uint, string,string,string,string, uint, ProductStatus){\n        Product memory product = stores[productIDInStore[id]][id];\n        return (product.id, product.name, product.category, product.imageLink, product.desc, product.price, product.status);\n    }\n    function getProductQuantity() view public returns(uint){\n        return productList.length;\n    }\n\n\n\n    function compareStrings (string a, string b) internal view returns (bool){\n        return keccak256(a) == keccak256(b);\n    }\n\n\n    function checkProductAvailable() public {\n\n    }\n\n\n    function kill() public {\n        if(msg.sender == owner) selfdestruct(owner);\n    }\n\n}\n\n",
  "sourcePath": "/Users/Snor/Documents/Ngoc Dung/go/hw2/contracts/Store.sol",
  "compiler": {
    "name": "solc",
    "version": "0.4.19+commit.c4cbbb05.Emscripten.clang"
  },
  "schemaVersion": "2.0.0",
  "updatedAt": "2018-03-25T14:25:04.172Z"
}